S00D000044413454332E73726563D7
S11300000C9434000C9446000C9446000C94460066
S11300100C9446000C9446000C9446000C94460044
S11300200C9446000C9446000C9446000C94460034
S11300300C9446000C9446000C9446000C94460024
S11300400C9446000C9446000C9446000C94460014
S11300500C9446000C9446000C9446000C94460004
S11300600C9446000C94460011241FBECFEFD8E038
S1130070DEBFCDBF21E0A0E0B1E001C01D92A13000
S1130080B207E1F70E9448000C948A000C94000027
S11300908FEF84B9ECE7F0E0808180668083808113
S11300A0807F8083EAE7F0E08081876080838081BD
S11300B0806A808380818064808387E893E1909361
S11300C08700809386001092890010928800E0E8EF
S11300D0F0E08081806A8083808182608083E1E8AF
S11300E0F0E0808188618083808183608083EAE797
S11300F0F0E0C9E7D0E0A8E8B0E0808184FFFDCF5C
S11301008881809300018091000190E011969C9376
S10B01108E93F3CFF894FFCFA6
S9030000FC
