S00D000044413454312E73726563D9
S11300000C9434000C94C0000C9446000C944600EC
S11300100C9446000C9446000C9446000C94460044
S11300200C9446000C9446000C9446000C94460034
S11300300C9446000C9446000C9446000C94460024
S11300400C9446000C9446000C9446000C94460014
S11300500C9446000C9446000C9446000C94460004
S11300600C9446000C94460011241FBECFEFD8E038
S1130070DEBFCDBF21E0A0E0B1E001C01D92A13000
S1130080B207E1F70E9448000C9415020C9400009A
S11300908FEF84B91AB8ECE7F0E080818066808342
S11300A08081807F8083EAE7F0E0808187608083BD
S11300B08081806A80838081806480835A9AE9E6A3
S11300C0F0E0808182608083E89A10928900109227
S11300D08800E0E8F0E08081806A8083808182602B
S11300E08083E1E8F0E080818861808380818260A0
S11300F080837894CAE7D0E00F2EF9E7EF2EF12C35
S1130100F02D06E810E0888184FFFDCFF70180819F
S1130110809300016091000170E080E090E00E9413
S11301201C0123E333E343E75FE30E9480010E9461
S1130130EB00F80171836083E6CF4A9910C020E098
S113014030E02F5F3F4F8FE097E20197F1F700C057
S113015000004A9906C02A30310599F702C020E010
S113016030E081E090E02A30310511F080E090E049
S1130170089585B1806385B908952D9A2C980895C2
S11301801F920F920FB60F9211242F933F934F9308
S11301905F936F937F938F939F93AF93BF93EF93EB
S11301A0FF930E949D00892B19F00E94BD0002C09C
S11301B00E94B900FF91EF91BF91AF919F918F91F0
S11301C07F916F915F914F913F912F910F900FBE4F
S11301D00F901F9018950E945F0188F09F5798F028
S11301E0B92F9927B751B0F0E1F0660F771F881F38
S11301F0991F1AF0BA95C9F714C0B13091F00E9452
S11302007901B1E008950C947901672F782F88273C
S1130210B85F39F0B93FCCF3869577956795B39578
S1130220D9F73EF490958095709561957F4F8F4FE7
S11302309F4F0895E89409C097FB3EF490958095EC
S1130240709561957F4F8F4F9F4F9923A9F0F92F98
S113025096E9BB279395F695879577956795B79516
S1130260F111F8CFFAF4BB0F11F460FF1BC06F5FFC
S11302707F4F8F4F9F4F16C0882311F096E911C00E
S1130280772321F09EE8872F762F05C0662371F02F
S113029096E8862F70E060E02AF09A95660F771F43
S11302A0881FDAF7880F9695879597F9089557FD73
S11302B09058440F551F59F05F3F71F04795880FD0
S11302C097FB991F61F09F3F79F087950895121667
S11302D013061406551FF2CF4695F1DF08C0161613
S11302E017061806991FF1CF8695710561050894C4
S11302F00895E894BB2766277727CB0197F90895DB
S11303000E9493010C9404020E94F60138F00E94AA
S1130310FD0120F0952311F00C94ED010C94F301F0
S113032011240C947A010E94570170F3959FC1F334
S1130330950F50E0551F629FF001729FBB27F00D8F
S1130340B11D639FAA27F00DB11DAA1F649F6627E4
S1130350B00DA11D661F829F2227B00DA11D621F33
S1130360739FB00DA11D621F839FA00D611D221FED
S1130370749F3327A00D611D231F849F600D211DD1
S1130380822F762F6A2F11249F5750409AF0F1F054
S113039088234AF0EE0FFF1FBB1F661F771F881FBD
S11303A091505040A9F79E3F510580F00C94ED0107
S11303B00C947A015F3FE4F3983ED4F386957795E5
S11303C06795B795F795E7959F5FC1F7FE2B880F63
S11303D0911D9695879597F9089597F99F6780E8F9
S11303E070E060E008959FEF80EC089500240A9483
S11303F01616170618060906089500240A941216FC
S11304001306140605060895092E0394000C11F42E
S1130410882352F0BB0F40F4BF2B11F460FF04C0DB
S11104206F5F7F4F8F4F9F4F0895F894FFCF6B
S9030000FC
