:100000000C9434000C9451000C9451000C94510049
:100010000C9451000C9451000C9451000C9451001C
:100020000C9451000C9451000C9451000C9451000C
:100030000C9451000C9451000C9451000C945100FC
:100040000C9451000C9451000C9451000C945100EC
:100050000C9451000C9451000C9451000C945100DC
:100060000C9451000C94510011241FBECFEFD8E026
:10007000DEBFCDBF11E0A0E0B1E0E2E5F1E002C0FB
:1000800005900D92A430B107D9F721E0A4E0B1E0CA
:1000900001C01D92A530B207E1F70E9453000C94F5
:1000A000A7000C940000CF93DF9300D0CDB7DEB74C
:1000B0008FEF84B9ECE7F0E08081806680838081F7
:1000C000807F8083EAE7F0E08081876080838081A1
:1000D000806A808380818064808310928500109282
:1000E0008400E0E8F0E080818083E1E8F0E0808156
:1000F00088608083808185608083EAE7F0E029E77B
:1001000030E048E850E0808184FFFDCFD9018C9138
:10011000809304018091040190E0DA0111969C9390
:100120008E93B19B0CC089819A8180509F4FDC01D6
:100130008C9185B989819A8101969A838983B19A34
:1001400089819A81837099279A838983DCCFF89477
:02015000FFCFDF
:0401520066CC9933AB
:00000001FF
